:020000040800F2
:10000000B00F002001010008090100080B010008E1
:100010000D0100080F010008110100080000000098
:1000200000000000000000000000000013010008B4
:100030001501000800000000170100081136000833
:100040001B0100081B0100081B0100081B01000820
:100050001B0100081B0100081B0100081B01000810
:100060001B0100081B0100081B0100081B01000800
:100070001B0100081B0100081B0100081B010008F0
:100080001B0100081B0100081B010008013D0008BE
:100090005D3E00081B0100081B0100081B01000851
:1000A0001B0100081B0100081B0100081B010008C0
:1000B0001B0100081B0100081B0100081B010008B0
:1000C0001B0100081B0100081B0100081B010008A0
:1000D0001B010008473A00081B0100084F3A0008BE
:1000E0001B0100081B0100081B010008DFF80CD0F1
:1000F00000F09AF8004800470D3F0008B00F0020BC
:100100000648804706480047FEE7FEE7FEE7FEE7B1
:10011000FEE7FEE7FEE7FEE7FEE7FEE7353600080E
:10012000ED00000880EA010210B502F00043400033
:1001300022D04A001FD0010E01EB1261C0F356001D
:10014000C2F3560240F4000042F40002A0FB022079
:1001500000047F39140400D0401C50EA124001D43E
:100160004000491EC2B20C0604EBD010401C4008EF
:10017000802A02D003E0002010BD20F001000029F9
:1001800000DA0020184310BDC10F80EAE070084477
:10019000CA079623002100F018B8962300221146C2
:1001A00000F013B8002801DBC0F10040002901DB9A
:1001B000C1F10041814270470029A8BF7047401C2F
:1001C000490008BF20F00100704710B4B0FA80FC6D
:1001D00000FA0CF050EA010404BF10BC704749B1AA
:1001E000CCF1200421FA04F411FA0CF118BF01211A
:1001F00021430843A3EB0C01CB1D4FEA00614FEAFA
:10020000102042BF002010BC704700EBC3501044C8
:100210000029A4BF10BC7047401C490008BF20F053
:10022000010010BC70470000064C074D06E0E06876
:1002300040F0010394E8070098471034AC42F6D32D
:10024000FFF758FFCC420008EC42000870B58C184C
:1002500010F8015B15F0070301D110F8013B2A11DA
:1002600006D110F8012B03E010F8016B01F8016BC7
:100270005B1EF9D12B0705D40023521E0DD401F8C3
:10028000013BFAE710F8013BCB1A921C03E013F88C
:10029000015B01F8015B521EF9D5A142D8D30020C1
:1002A00070BD000070B504460D460026002004E035
:1002B000215C3144CEB2411CC8B2691E8142F7DCD8
:1002C000601910F8010CB04200D070BD2078AA2847
:1002D00002D16078AF2800D0F7E7A078012847D195
:1002E0002079012802D1B349087041E02079022821
:1002F00003D10120AF4948703AE02079032804D1A6
:100300000120AC490870487032E02079312822D1B0
:1003100000F0C2FD00F0C0FC642001F043FDA648DF
:1003200000F014FEA44800F013FD01F06BFD002066
:1003300001F094FD002001F07FFD642001F032FD0A
:10034000012001F079FD01209C49C87000F04CFAB1
:1003500000F056FA0CE02079A02803D1002098493B
:10036000087005E02079A12802D101209449087085
:10037000A078022814D12079012806D191498871EA
:10038000C871087248728872C8722079A02802D198
:1003900001208C4988702079A12801D100F072FBDE
:1003A000A078032832D102208449487020796179ED
:1003B00041EA002084498880A079E17941EA00205F
:1003C0008149C880207A617A41EA00207E4908800C
:1003D000A07AE17A41EA00207B494880207B617B5A
:1003E00041EA002078490881A07BE17B41EA0020B6
:1003F00075494881207C617C41EA002072498881EE
:10040000A07CE17C41EA00206F49C881A0781028D7
:100410004AD12079000200B2617908436B4908672C
:10042000A079000200B2E179084368494867207A60
:10043000000200B2617A084364498867A07A00022A
:1004400000B2E17A08436149C867207B000200B22C
:10045000617B08435D49C1F88000A07B000200B2C7
:10046000E17B08435949C1F88400207C000200B2B6
:10047000617C08435549C1F88800A07C000200B2A5
:10048000E17C08435149C1F88C00207D000200B294
:10049000617D08434D49C1F89000A078314600F0D5
:1004A0000DF901204A490880A078112845D120790A
:1004B000000200B2617908434449C864A07900028F
:1004C00000B2E179084341490865207A000200B290
:1004D000617A08433D494865A07A000200B2E17A9A
:1004E00008433A498865207B000200B2617B0843DB
:1004F0003649C865A07B000200B2E17B084333495E
:100500000866207C000200B2617C08432F494866DF
:10051000A07C000200B2E17C08432C498866207D63
:10052000000200B2617D08432849C866A0783146C0
:1005300000F0C4F8012026490880A07812281ED1B6
:100540002079000200B2617908432049C1F8940083
:10055000A079000200B2E17908431C49C1F8980073
:10056000207A000200B2617A08431849C1F89C0061
:10057000A078314600F0A2F8012015490880A07843
:10058000132806D1A078314600F098F801201049D0
:100590000880A078142803D1A078314600F08EF8A6
:1005A000A078152803D1A078314600F087F800BF65
:1005B0008BE600003806002000CA08000400002076
:1005C0002000002050040020C8040020B0030020B8
:1005D0001000002010B504463448007838B9AA2C21
:1005E00005D1012031490870314804705DE02F4881
:1005F0000078012807D1AF2C05D102202B490870C3
:100600002B48447051E029480078022807D1F12C8A
:1006100005DA0320254908702548847045E0234801
:10062000007803280CD1322C0ADA04201F49087004
:100630001F48C4701F48047000201F49087034E030
:100640001A480078042819D11A480078002815DDC6
:1006500018480078401E1749087017480078164956
:100660000978491C144A1170001D11490C54114895
:100670000078D0B905200D49087016E00B480078C5
:1006800005280FD10020094908700B480078001D8B
:1006900007490C5408480078401DC1B20448FFF7D0
:1006A00001FE02E000200149087010BD1E0000207C
:1006B000950400201C0000201D00002070B5044699
:1006C0000D46AA200D4908704870EF20887002205E
:1006D000C8700846047145710026002005E00749EE
:1006E000095C3144CEB2411CC8B20628F7DB03488E
:1006F0008671072100F004F870BD0000630400203B
:1007000070B504460D462946204603F0ABFB29464A
:10071000204600F079F90448C07818B92946034802
:1007200000F07CFB70BD000004000020630400208A
:1007300018B50246002016E04B1E441CA3420ADBFB
:100740000B4BC35A00939DF8003013549DF80140A1
:10075000431CD45405E0064BC35A00939DF8003067
:100760001354831C98B28842E6DB012018BD0000B8
:10077000000001082DE9F04105460E4601F0DEFBC0
:10078000154801F07BFB8046B8F1040F02D0002031
:10079000BDE8F08100241BE0701E611C884206DB6E
:1007A000295D601C285C01EB002087B203E0285D16
:1007B00000F57F4087B208496018394601F09EFB7A
:1007C0008046B8F1040F01D00020E1E7A01C84B2FC
:1007D000B442E1DB0120DBE7000001080820014909
:1007E00008607047100C01400820014908607047FC
:1007F000140C01401020014908607047100C0140A2
:100800001020014908607047140C014008B501210F
:10081000084602F0CBF90121174801F039FC01210B
:10082000082002F0C3F90121082002F0BFF90121DC
:10083000082002F0BBF910208DF8030003208DF88A
:1008400002004FF48070ADF8000069460B4801F0DB
:1008500094FB0820ADF800006946084801F08DFBC4
:100860001020ADF800006946044801F086FBFFF750
:10087000B5FFFFF7BFFF08BD00023000000C0140CC
:100880004FF480700149086070470000140C01406B
:100890004FF480700149086070470000100C01405F
:1008A0001CB505220E49302000F0C2F80522694629
:1008B000102000F08FF8002408E01DF8040008491B
:1008C000095D884200D003E0601CC4B2052CF4DB53
:1008D00000BF052C01D101201CBD0020FCE7000059
:1008E0004800002070B504460D4600F033F905229B
:1008F00036492A2000F09CF805223549302000F0C6
:1009000097F80121212000F0ACF80121222000F00D
:10091000A8F81A21242000F0A4F82946252000F088
:10092000A0F80F21262000F09CF8012C08D1FF210F
:10093000312000F096F80F21202000F092F841E0DD
:10094000022C08D1FF21312000F08BF80E2120204D
:1009500000F087F836E0032C1AD1FF21E12000F0E7
:1009600080F8FF21E22000F07CF80F21202000F029
:1009700078F8502000F074F9732000F071F901212B
:100980003C2000F06EF806213D2000F06AF819E0E6
:100990000E21202000F065F8FF21E12000F061F831
:1009A000FF21E22000F05DF8502000F059F973209B
:1009B00000F056F901213C2000F053F806213D20BB
:1009C00000F04FF800F0BCF870BD00004D000020B2
:1009D000480000202DE9F04107460D46164600F07C
:1009E000CDF8384600F03CF98046002405E00020B0
:1009F00000F036F92855601CC4B2B442F7DB00F0B1
:100A0000B3F84046BDE8F08170B504460D4600F0ED
:100A1000A1F8052205492A2000F00AF82A462146B5
:100A2000A02000F005F800F08BF870BD4800002011
:100A30002DE9F04107460D46164600F09FF838466E
:100A400000F00EF98046002404E0285D00F008F96B
:100A5000601CC4B2B442F8DB00F086F84046BDE842
:100A6000F08170B505460C4600F088F8284600F085
:100A7000F7F80646204600F0F3F800F075F8304627
:100A800070BD000010B5AA2020490870C820488019
:100A9000642088804FF47A70C86401461B48016561
:100AA000416508461949886501461848C1650166CF
:100AB000084616494866014614488166C1660846DC
:100AC00012490867014611484167816708460F4986
:100AD000C86701460D48C0F88010C0F88410084669
:100AE0000A49C1F8880001460848C0F88C10C0F8CF
:100AF000901008460549C1F8940001460348C0F823
:100B00009810C0F89C1000F011F810BDB003002040
:100B100010B5A0210448FFF70BFE03480078AA286F
:100B200001D0FFF7AFFF10BDB003002010B5A0212A
:100B30000248FFF71FFE03F0F9F910BDB0030020D3
:100B400010B54FF48071024801F0ECFA10BD0000BE
:100B50000008014010B54FF48071024801F0E0FA3E
:100B600010BD00000008014010B54FF4805102484C
:100B700001F0D8FA10BD0000000C014010B54FF490
:100B80008051024801F0CCFA10BD0000000C014079
:100B900000B587B00121082002F008F801210420E7
:100BA00002F004F80121880301F0E0FF4FF46040F7
:100BB000ADF8040001208DF8060018208DF807001C
:100BC00001A9244801F0D9F94FF48050ADF8040090
:100BD00001208DF8060010208DF8070001A91D489E
:100BE00001F0CBF94FF480511A4801F09BFA4FF411
:100BF0008070ADF8040001208DF8060010208DF8FB
:100C0000070001A9144801F0B8F90020ADF8080068
:100C10004FF48270ADF80A000020ADF80C00ADF87A
:100C20000E00ADF810004FF40070ADF8120008206F
:100C3000ADF814000020ADF816000720ADF818003C
:100C400002A9064802F0C6F80121044802F0A8F8FB
:100C500007B000BD000C0140000801400038004012
:100C600010B5044600BF02210A4802F0A5F800288A
:100C7000F9D02146074802F0ABF800BF0121054832
:100C800002F09AF80028F9D0024802F09EF8C0B2AB
:100C900010BD00000038004008B5094802F0F8FE19
:100CA000002240F22551064802F04DFF27208DF822
:100CB000000000208DF80300684601F0F3FD08BD38
:100CC0000048004010B51E48008800F0080020B120
:100CD0001B49091D0988C8B200BF1948008800F0E7
:100CE0008000F0B116480C30008800F08000C0B1E0
:100CF000144801780078401C124A10701248405C79
:100D00000F49091D0880104600781049097888426B
:100D100007D10B480C30008820F0800008490C31C6
:100D200008800748008800F0200038B10448001D02
:100D30000088C4B22046FFF74DFC00BF10BD000084
:100D40000048004056000020500A002057000020B4
:100D500010B588B004460121880401F007FF012185
:100D6000082001F023FF4FF48060ADF80400032059
:100D70008DF8060018208DF8070001A9254801F01C
:100D8000FCF84FF40060ADF8040003208DF8060075
:100D900004208DF8070001A91E4801F0EEF8049424
:100DA0000020ADF81400ADF81600ADF81800ADF84D
:100DB0001C000C20ADF81A000020ADF80800ADF8BA
:100DC0000A004FF40070ADF80C000020ADF80E00E2
:100DD00004A9114802F0DCFE02A90F4802F03BFE14
:100DE000012240F225510C4802F0ADFE01210A48D3
:100DF00002F042FE27208DF8000004208DF801004B
:100E000001208DF802008DF80300684601F04AFDCC
:100E100008B010BD000C01400048004070B5044609
:100E20000D4600200AE0225C0C490B780978491C29
:100E30000A4E31700A49CA54411CC8B2A842F2DBBA
:100E40000848008800F0800030B9012240F2277184
:100E500004480C3802F077FE70BD000057000020F7
:100E6000500A00200C48004010B50446074801789D
:100E70000078401C054A107005484454012240F295
:100E80002771044802F05FFE10BD000057000020EB
:100E9000500A00200048004008B5094802F0F8FD5B
:100EA000002240F22551064802F04DFE25208DF823
:100EB000000000208DF80300684601F0F3FC08BD37
:100EC0000038014010B508211C4802F02FFE10B177
:100ED0001A4802F0C9FE1948008800F08000F0B1FD
:100EE00016480C30008800F08000C0B1144801782A
:100EF0000078401C124A10701248405C0F49091DCE
:100F000008801046007810490978884207D10B48BC
:100F10000C30008820F0800008490C310880074818
:100F2000008800F0200038B10448001D0088C4B2D9
:100F30002046FFF799FF00BF10BD000000380140B8
:100F400054000020500900205500002010B588B042
:100F500004460121880301F029FE0121084601F021
:100F600025FE0121042001F021FE4FF40070ADF8B0
:100F7000040003208DF8060018208DF8070001A951
:100F8000254800F0FAFF4FF48060ADF8040003201C
:100F90008DF8060004208DF8070001A91E4800F016
:100FA000ECFF04940020ADF81400ADF81600ADF885
:100FB0001800ADF81C000C20ADF81A000020ADF8A8
:100FC0000800ADF80A004FF40070ADF80C000020E6
:100FD000ADF80E0004A9114802F0DAFD02A90F488D
:100FE00002F039FD012240F225510C4802F0ABFD20
:100FF00001210A4802F040FD25208DF8000005205F
:101000008DF8010001208DF802008DF8030068467C
:1010100001F048FC08B010BD000801400038014054
:101020000146CAB20B1243EA0220704770B51A4952
:10103000D1F89400FFF7A8F805464FF07E51FFF76E
:1010400071F804461549FFF76DF815490860124913
:10105000D1F89800FFF798F805460021FFF762F8ED
:1010600004460E49FFF75EF80D494860002088608D
:101070000949D1F89C00FFF787F805460021FFF7E2
:1010800051F804460549FFF74DF80549C8604FF08F
:101090007E50086170BD0000B00300206F12833ADB
:1010A0006002002070B54A49086FFFF76DF80546E9
:1010B0004FF08041FFF736F804464649FFF732F813
:1010C000454908604249486FFFF75EF805464FF012
:1010D0008041FFF727F804463E49FFF723F83E49D1
:1010E0004860002088603A49886FFFF74DF8054650
:1010F0003A49FFF717F804463649FFF713F836491F
:10110000C860374808613249C86FFFF73DF80546A7
:101110004FF08041FFF706F804462E49FFF702F82A
:10112000304908602A49D1F88000FFF72DF80546BC
:101130004FF08041FEF7F6FF04462649FEF7F2FF26
:1011400028494860002088602149D1F88400FFF7D1
:101150001BF805462149FEF7E5FF04461D49FEF749
:10116000E1FF2049C8601E4808611949D1F888008C
:10117000FFF70AF805461C49FEF7D4FF0446154957
:10118000FEF7D0FF194908601149D1F88C00FEF72D
:10119000FBFF05464FF08041FEF7C4FF04460D49B2
:1011A000FEF7C0FF11494860002088600849D1F867
:1011B0009000FEF7E9FF05460849FEF7B3FF044635
:1011C0000449FEF7AFFF0949C8600548086170BDD2
:1011D000B00300206F12833A240200208FC2753DB5
:1011E0000AD7233C380200200000A0404C02002017
:1011F00070B54449C86CFEF7C7FF05464249FEF783
:1012000091FF04464149FEF78DFF414908603D4981
:10121000086DFEF7B9FF05463E49FEF783FF044619
:101220003A49FEF77FFF3A4948603649486DFEF774
:10123000ABFF05463849FEF775FF04463349FEF714
:1012400071FF334988600020C86008612D49886DAE
:10125000FEF79AFF05462C49FEF764FF04462B492A
:10126000FEF760FF2D4908602649C86DFEF78CFF28
:1012700005462849FEF756FF04462449FEF752FF6B
:10128000264948601F49086EFEF77EFF0546224941
:10129000FEF748FF04461D49FEF744FF1F498860DA
:1012A0000020C86008611749486EFEF76DFF0546CB
:1012B0001549FEF737FF04461449FEF733FF184976
:1012C00008601049886EFEF75FFF05461149FEF77A
:1012D00029FF04460D49FEF725FF114948600949D9
:1012E000C86EFEF751FF05460B49FEF71BFF04468B
:1012F0000649FEF717FF0A4988600020C8600861A8
:1013000070BD0000B0030020CDCC4C3F6F12833A7B
:10131000E8010020CDCC4C3D0AD7233CFC01002045
:101320001002002010B5002473E147F6FF70BF499A
:101330000860BF48008800F00F00BE4908700846EA
:10134000007800287ED1B9484438006800F4405045
:10135000B9490880B5484438006800F03000B74902
:101360000880B249443909684BF68F7201EA0200DD
:1013700080F40050AD4944390860096848F6BF72EE
:1013800001EA020080F02000A84944390860A8481A
:10139000008800F01000002838D10846006848F6A0
:1013A0000F710840A1494439086001F0FDF89F49D8
:1013B000443909684BF68F7201EA02009E49098898
:1013C00001F4805109B180F480509B49098801F4EF
:1013D000005109B180F4005094494439086009680B
:1013E00048F6BF7201EA02009449097801F0100141
:1013F00009B180F010009149097801F0200109B18C
:1014000080F0200089494439086010BD874844387D
:10141000006884B204F08000D8B38448443800687F
:1014200048F60F71084081494439086001F0BCF862
:101430007E49443909684BF68F7201EA02007E4901
:10144000098800E0A6E001F4805109B180F48050E1
:101450007949098801F4005109B180F400507349B9
:1014600044390860096848F6BF7201EA020073490E
:10147000097801F0100109B180F010006F49097876
:1014800001F0200109B180F020006849443908606A
:10149000BBE7FFE704F40060D8B364484438006851
:1014A000C0F30E0048F68F71084060494439086067
:1014B00001F010FE5D49443909684BF68F7201EA6C
:1014C00002005D49098801F4805109B180F480501F
:1014D0005949098801F4005109B180F40050534979
:1014E00044390860096848F6BF7201EA02005349AE
:1014F000097801F0100109B180F010004F49097816
:1015000001F0200109B180F0200048494439086009
:101510007BE7FFE704F4004000287AD043484438D2
:101520000068C0F30E0048F68F7108403F49443907
:10153000086001F09BFA3D49443909684BF68F7207
:1015400001EA02003C49098801F4805109B180F4A4
:1015500080503949098801F4005109B180F40050E4
:10156000324944390860096848F6BF7201EA02004E
:101570003249097801F0100109B180F010002F49BB
:10158000097801F0200109B180F020002749443991
:1015900008603AE727480078294901EB8000D0F835
:1015A000000C84B204F40040C0B12248007801EB82
:1015B0008000D0F8000CC0F30E0048F68F71084090
:1015C0001C4909781E4A02EB8101C1F8000C194937
:1015D0000978491E1B4A52F82100804704F0800018
:1015E000B8B114480078164901EB8000D0F8000C1F
:1015F00048F60F7108400F490978114A02EB810142
:10160000C1F8000C0B490978491E0F4A52F8210015
:1016100080470648006880B20549088000F4004011
:1016200000287FF482AE00BFEFE60000445C00407B
:10163000CC00002098000020AC000020AE0000206C
:1016400000500040EC000020D00000200B4A02EBCC
:101650008001D1F8001C01F4804169B102EB8001E6
:10166000D1F8001C48F68F72114041F48041034BC1
:1016700003EB8002C2F8001C7047000000500040DD
:101680000B4A02EB8001D1F8001C01F0400169B166
:1016900002EB8001D1F8001C48F68F72114041F036
:1016A0004001034B03EB8002C2F8001C70470000AE
:1016B00000500040064A02EB8001D1F8001C48F6B9
:1016C0008F621140024B03EB8002C2F8001C70478E
:1016D0000050004070B504460025062C18D118486B
:1016E0000068007800F07F00012811D114480068DC
:1016F000407968B9124800688078222801D1114DDC
:1017000010E00F480068807821280BD10E4D09E0C9
:101710000B480068007800F07F00212802D1032CDC
:1017200000D10A4D0DB9022070BD054800688561E1
:1017300000210348006841820020A8470020F3E709
:101740009C000020A9170008791700088D170008D1
:1017500010B504460249204601F0D8FD10BD000036
:101760006C01002010B504460249204601F0CEFD70
:1017700010BD00006401002010B504460249204657
:1017800001F0C4FD10BD00007C010020014629B914
:101790000120034A12681082002070470148FCE7CC
:1017A0009C0000200801002010B504460249204694
:1017B00001F0ACFD10BD00007401002070B50546BD
:1017C00006480068C478042C01DD002070BD044880
:1017D00000EBC401284601F099FDF7E79C000020CA
:1017E000840100200246002901DD02207047002A02
:1017F00001DD0220FAE70020F8E7000000B502460C
:1018000006480068007800F07F00212804D10B2AE8
:1018100002D100F077F800BD0220FCE79C00002018
:1018200010B500202A490968887229490968C872D8
:101830002848C079264909684872002001F0E8FA72
:101840004FF40071002001F0B5FB1021002001F0E1
:1018500095FB1821002001F009FB5821002001F020
:101860006FFB0020FFF726FF1B4890F82C1000208C
:1018700001F00EFB002001F04DFB4FF4C061012090
:1018800001F098FB9821012001F0F0FA402101209D
:1018900001F0FEFA4FF44051012001F01FFB4FF41C
:1018A000C061022001F086FB4FF48C71022001F030
:1018B00047FB4021022001F053FB2021022001F0D0
:1018C0005DFB012005490860002001F0A9FA10BD68
:1018D0009C0000205642000810010020A4010020B6
:1018E00003480068807A10B10520024908607047FB
:1018F0009C000020A40100200420014908607047DA
:10190000A401002003480068C1780348016000205A
:10191000704700009C0000200801002070477047BD
:1019200010B500F04BFC00200A490968887201F0EC
:10193000FDF80020084908604FF43F40074908803F
:10194000084600880449091F08600020044908600F
:1019500010BD00009C000020445C0040A600002058
:10196000A40100202DE9F0472848006800F1100587
:101970002E8826480068077AD6B9042F18D1244843
:10198000007801280FD100212248006880B2801C15
:10199000214A42F8101030202049088000BF002062
:1019A0001B49087003E0072710201C49088027E026
:1019B000AC88A64201D8042000E002200746B442C9
:1019C00000D93446A0B2A96888478046002000F0BC
:1019D000C3FB8146A2B24946404602F059FAA1B281
:1019E000002001F0BDFA2888001B28806888204468
:1019F000688030200949088000020949088000BF3A
:101A0000024909680F72BDE8F08700009C000020C1
:101A100096000020505C004000600040AE000020B6
:101A2000AC0000202DE9F0412848006800F11004C6
:101A30002688A068C0B1BEB1A588B54200D9354698
:101A4000A8B2A168884707462088401B208060888C
:101A500028446080002000F06FFB8046AAB2414617
:101A6000384601F02BF800BF208850B14FF44050A9
:101A7000174908800021084601F072FA3020154904
:101A800008802088A188884204DB03200F49096868
:101A9000087218E02088002804DD05200B49096839
:101AA000087210E0208870B9062008490968087299
:101AB00000210948006880B2801C084A42F81010D2
:101AC000302004490880BDE8F08100009C0000201F
:101AD000AC000020AE000020505C004000600040E0
:101AE0002DE9F84F9B48006845780027BA46062D37
:101AF0001BD198480068007800F07F00002813D1BF
:101B0000944909688878012803D193490968CF6905
:101B10000AE0022803D1904909680F6A04E003280B
:101B200002D18D4909684F6A94E0002D64D189483B
:101B30000068408800285FD186480068C088022875
:101B40005AD1844800680079002855D1814800683E
:101B5000007800F07F0028B97E480068808808B9C6
:101B60007E4F77E07B480068007800F07F00012816
:101B700010D1784909684879774909688A6900214C
:101B80009047002866D173480068807A002861D0A9
:101B9000724F5FE06F480068007800F07F00022815
:101BA00058D16C480068407900F00F066948006819
:101BB000407900F0700967480068407900F08000C3
:101BC00038B1674901EB8600D0F8000C00F030080E
:101BD00006E0634901EB8600D0F8000C00F44058A1
:101BE00060480078B04235D9B9F1000F32D1B8F170
:101BF000000F2FD0594F2DE0082D07D15548006810
:101C0000007800F07F0028BB574F23E00A2D21D138
:101C100050480068007800F07F0001281AD14D4834
:101C20000068807AB0B14B480068408890B9494854
:101C30000068007970B947480068C088012809D158
:101C4000444909684879444909688A6900219047EC
:101C500000B9464F57B13F480068A0F812A03D4870
:101C6000006887610020B84700240FE0394A1268F5
:101C70005078394A1268116988470446032C05D107
:101C80000920344909680872BDE8F88F31480068B6
:101C9000008A4FF6FF71884204D109202D49096856
:101CA0000872F1E7022C03D02A480068008A20B9A4
:101CB0000820284909680872E6E726480068007885
:101CC00000F08000E0B323480068C08800902148FD
:101CD0000068008A0099884204D91E490098096862
:101CE000088223E01B480068008A1A490968C988ED
:101CF00088421BDA17480068008A1749096891F87A
:101D00002C10884203DA0020194908700EE01148AF
:101D10000068008A1049096891F82C1090FBF1F2D4
:101D200001FB120010B90120114908700A4800682F
:101D300090F82C10074800688182FFF713FE07E037
:101D4000FFE7032003490968087200030949088076
:101D500000BF99E79C000020A00000205D33000830
:101D6000005000400C010020E1320008313300082F
:101D700096000020AC00002001B502E00098401E53
:101D8000009000980028F9D108BD11B5002405E0A5
:101D90004FF47A7000F006F8601C84B20098844218
:101DA000F6D318BD11B500F0E7F9044600BF00F006
:101DB000E3F9001B00998842F9D318BD10B5402201
:101DC0009821054800F07AFE0120044908704FF47C
:101DD000405101F083F810BDE8040020CA00002043
:101DE000002004E00021034A1154411CC8B24028DD
:101DF000F8DB70476C0B0020032001490860704736
:101E0000A401002008B50121084600F0CFFE012101
:101E1000082000F0CBFE10208DF8030003208DF881
:101E200002004FF40870ADF800006946014800F068
:101E3000A4F808BD000C014010B504462CB14FF4C5
:101E40000071054800F06EF904E04FF4007102489B
:101E500000F066F910BD0000000C014010B504460A
:101E600024B12021044800F05DF903E0202102485C
:101E700000F056F910BD0000000C014030B50446DA
:101E800004254FF4302000F065F80546042D17D1E5
:101E90000C48006940F002000A49086108464461A4
:101EA000006940F0400008614FF4302000F052F823
:101EB00005460448006941F6FD7108400149086182
:101EC000284630BD0020024004200B49C96801F0BB
:101ED000010109B101200EE00749C96801F00401C0
:101EE00009B1022007E00449C96801F0100109B1F5
:101EF000032000E0042070470020024070B5044633
:101F00000D460426F00200F025F80646042E11D1F5
:101F10000948006940F00100074908612580F00286
:101F200000F018F806460448006941F6FE710840C2
:101F300001490861304670BD002002400248034953
:101F4000486003484860704723016745002002400D
:101F5000AB89EFCD00B502460423FFF7B5FF03467A
:101F600003E0FFF7B1FF0346521E012B01D1002A07
:101F7000F7D102B90523184600BD2DE9F04102460C
:101F800000250026002000230024002791F803C02C
:101F90000CF00F0591F803C00CF0100CBCF1000F11
:101FA00003D091F802C04CEA050591F800C0BCF1DD
:101FB000000F31D0146800202BE04FF0010C0CFA18
:101FC00000F3B1F800C00CEA03069E4220D1830062
:101FD0004FF00F0C0CFA03F7BC4305FA03FC4CEA74
:101FE000040491F803C0BCF1280F06D14FF0010C96
:101FF0000CFA00FCC2F814C00AE091F803C0BCF16E
:10200000480F05D14FF0010C0CFA00FCC2F810C0CB
:10201000401C0828D1D31460B1F800C0BCF1FF0FF8
:1020200034DD546800202EE000F1080C4FF0010868
:1020300008FA0CF3B1F800C00CEA03069E4221D165
:1020400083004FF00F0C0CFA03F7BC4305FA03FCB6
:102050004CEA040491F803C0BCF1280F05D100F14B
:10206000080C08FA0CF8C2F8148091F803C0BCF10F
:10207000480F07D100F1080C4FF0010808FA0CF8DE
:10208000C2F81080401C0828CED35460BDE8F0810F
:10209000F0B50A46002300240021002500F0004688
:1020A000B6F1004F02D11D4EF16901E01B4E71687F
:1020B000C0F3034583B200F44016B6F5401F08D1C3
:1020C00021F07061154E766826F07066134F7E60C1
:1020D00012E000F48016B6F5801F06D1032606FA3A
:1020E00005F4A14341F0706106E0460D360103FAA4
:1020F00006F6B14341F0706122B1460D360103FA94
:1021000006F6314300F00046B6F1004F02D1034E0F
:10211000F16101E0014E7160F0BD0000000001407E
:1021200041617047016170474FF6FF7101800221E4
:1021300081700421C170704701460548006880B273
:1021400000EBC100001D034A32F8100080B2704756
:10215000505C00400060004001460548006880B2C5
:1021600000EBC100034A32F8100080B27047000053
:10217000505C00400060004000BF0E4801684FF016
:10218000E02082690B4800688142F6D10A48006865
:1021900000EB4003C3EBC010C2EBC000064B1B6852
:1021A000B0FBF3F001EB4103C3EBC11300EBC30041
:1021B000704700005C0000205800002010B50F4B55
:1021C00018681B1D19681B1D1A68A8B10C4CA0705B
:1021D000030A2371030CA371030E2372A1720B0A6D
:1021E00023730B0CA3730B0E2374A274130A2375B1
:1021F000130CA375130E237610BD0000E8F7FF1F24
:10220000B000002000B540200A49086000F018F92D
:1022100080200849086000F013F940200549091F93
:10222000086000F00DF940200249086000F008F94C
:1022300000BD0000140C014008B50121082000F089
:10224000B5FC4020ADF8000003208DF802001420FA
:102250008DF8030069460848FFF78FFE8020ADF82F
:10226000000003208DF8020014208DF80300694659
:102270000148FFF782FE08BD000C014000B5402078
:102280000A49086000F0DCF880200849091F08604E
:1022900000F0D6F840200549091F086000F0D0F88A
:1022A00040200249086000F0CBF800BD140C01404A
:1022B00010B503460824002280201449086014E069
:1022C0005006020E40201149091D086000F0B8F8C0
:1022D00040200E49086000F0B3F80C480838006848
:1022E00000F0800008B142F00102201EA4F10101BB
:1022F000CCB2E5D140200549091D086013B1FFF7B4
:1023000081FF01E0FFF7BAFF104610BD100C01403D
:1023100000B5082119E04022104B1A6000F090F837
:1023200000F0800222B180220C4B1B1F1A6002E0D9
:1023300080220A4B1A604206100E00F081F84022FB
:10234000064B1B1F1A6000F07BF80A1EA1F1010367
:10235000D9B2E0D14022014B1A6000BD140C0140FB
:1023600000B58020134908604020086000F068F83C
:1023700010480838006808B9012000E0002000F08B
:10238000800008B1002000BD80200A49091D0860B6
:1023900000F056F807480838006800F0800008B1DF
:1023A0000020F0E780200349091D086000F048F88C
:1023B0000120E8E7100C014000B540200A49086000
:1023C00000F03EF880200849086000F039F840200D
:1023D0000549091F086000F033F880200249091FF1
:1023E000086000F02DF800BD140C014000B500227B
:1023F00040201249086000F023F880200F49091F8F
:10240000086000F01DF840200C49091F086000F02A
:1024100017F80A480C38006800F0800038B1501CEA
:10242000C2B2C82A03DDFFF7C7FF012000BD40206C
:102430000249086000F004F80020F7E7140C01409E
:1024400000BF00BF00BF00BF70470000F0B50646E8
:102450000F4614461D46FFF783FF184908707106A2
:10246000080EFFF755FFFFF7C1FF18B1FFF7A4FFF4
:102470000120F0BD3846FFF74BFFFFF7B7FFFFF72E
:102480006FFF012101EB4601C8B2FFF741FFFFF7E3
:10249000ADFF0DE0012C04D10020FFF709FF2870EB
:1024A00003E00120FFF704FF28706D1C601EC4B21A
:1024B000002CEFD1FFF780FF0020DAE7600000205A
:1024C00070B504460D461646FFF74AFF6106080E32
:1024D000FFF71EFFFFF78AFF18B1FFF76DFF01201E
:1024E00070BD2846FFF714FFFFF780FF3046FFF767
:1024F0000FFFFFF77BFFFFF75FFF0020F0E7F8B566
:1025000006460F4614461D466B46012239463046A4
:10251000FFF79CFF2DB10120A0409DF8001008435B
:1025200005E00120A0409DF8001021EA0000C0B2A3
:1025300000909DF8002039463046FFF7C1FFF8BDF6
:102540002DE9F8430746884614461D46089E6B460B
:10255000012241463846FFF779FF601CFF2101FA4E
:1025600000F0C4F108012944491EFF220A4110432A
:1025700000F0FF09C5F1080006FA00F0C6B2C4F188
:10258000070006419DF8000000EA090000909DF850
:102590000000304300909DF8002041463846FFF788
:1025A0008FFFBDE8F883000010B518480068047A72
:1025B000022C01D0042C05D1FFF7D4F91348006890
:1025C000047A1CE0062C19D11048006840780528D0
:1025D0000ED10E480068007800F07F0040B90B492A
:1025E0000968C87800F01CFC09490968086A804736
:1025F0000849096888688047082400E008240349DE
:1026000009680C7200F06EFA10BD00009C000020FA
:10261000A8000020A000002010B50F480088FDF79A
:10262000BCFD04460D4801682046FDF7BBFD02D203
:10263000FEF72EF901E0FEF723F907480088401C59
:1026400080B20549088006490988884202DB0020DB
:102650000149088010BD0000340000203000002037
:102660002C0000200548817A19B10521044A116027
:1026700002E00121024A116070470000500B002067
:10268000A401002010B51748008A401C1549088293
:102690000846C088401C00B2C88008460089401C1B
:1026A00000B2088108464089401C00B248810846B3
:1026B0008089401C00B288810846C089401C00B255
:1026C000C88108460078022804DB08464088401C80
:1026D000488004E003480078401C02490870FFF776
:1026E0009BFF10BDAC0100207047000070B5044690
:1026F0000125FFF7F9FF2A2C15D006DC052C0CD09C
:102700000A2C0CD0142C16D10BE0622C0DD0BC2C52
:102710000DD0B4F5807F0ED10BE006250DE0052528
:102720000BE0042509E0032507E0022505E001256B
:1027300003E0002501E0042500BF00BFFFF77CFD9A
:102740000A20FFF722FB80226B216820FFF7B8FEEA
:102750000A20FFF71AFB00226B216820FFF7B0FE6A
:102760000A20FFF712FB002000F084F80A20FFF790
:102770000CFB032000F034F80A20FFF706FB40F2C0
:102780004D1000F080F80A20FFF7FFFA032000F058
:102790004DF80A20FFF7F9FA022000F035F80A2078
:1027A000FFF7F3FAE8B200F025F80A20FFF7EDFA98
:1027B000002000F056F80A20FFF7E7FA012000F0A9
:1027C00047F80A20FFF7E1FA044B0122752168203F
:1027D000FFF73CFE0A20FFF7D8FA70BD3E0000204C
:1027E00038B50446032302226B2168200094FFF7CA
:1027F000A7FE38BD38B50446032302221A216820FB
:102800000094FFF79DFE38BD38B50446022304222C
:102810001C2168200094FFF793FE00200323072269
:102820001C2100906820FFF78BFE38BD38B50446A8
:10283000022304221B2168200094FFF781FE002060
:10284000032307221B2100906820FFF779FE38BD83
:1028500010B504462346012237216820FFF74FFEBA
:1028600010BD10B50446234605226A216820FFF7F3
:1028700046FE10BD10B50446234606226B21682093
:10288000FFF73DFE10BD70B504464FF47A7090FB23
:10289000F4F0401EC5B22A4619216820FFF710FE49
:1028A00070BD704770B5002100230F22C47804B3B7
:1028B000154C246804F4E064C4F5E064210AC1F115
:1028C0000403CA40447804FA03F184781440214395
:1028D00009010E4C0678A155047804F01F05012467
:1028E000AC4005786D11AD0005F1E025C5F800415B
:1028F00009E0047804F01F050124AC40044D06787B
:10290000761145F8264070BD0CED00E000E400E0D3
:1029100080E100E002490143024A11607047000073
:102920000000FA050CED00E070B502264A48006888
:10293000447849480068007800F07F0000284AD1B8
:10294000092C03D100F082FD064665E0052C14D168
:1029500041480068C0787F280BDC3F4800688078D9
:1029600038B93D480068808818B93B480068807ACB
:1029700008B108256BE000264EE0032C14D1364840
:102980000068C07801280DD133480068808848B9B4
:1029900031480068407A00F0200018B100F07AFD5C
:1029A000064639E0022637E0012C35D12A48006876
:1029B000C07801280DD128480068808848B9264889
:1029C0000068407A00F0200018B100F0DBFB0646FA
:1029D00022E0022620E020480068007800F07F0016
:1029E000012805D10B2C17D100F0C8FD064613E0D5
:1029F00019480068007800F07F0002280BD1012CF4
:102A000003D100F0BFFB064606E0032C04D100F022
:102A100055FD064600E002264EB1E0B20F4A1268AC
:102A2000516988470646032E01D109250FE00EB1F2
:102A300008250CE0062500210948006880B2801CAA
:102A4000084A42F8101030200749088000BF0249A8
:102A500009680D7270BD00009C000020A0000020DD
:102A6000505C004000600040AE00002010B51148EE
:102A70000068047A032C01D0052C05D1FEF7D2FFA3
:102A80000C480068047A0EE0072C05D10A49096851
:102A9000C8688047082406E0022C01D0042C01D12C
:102AA000082400E00824034909680C7200F01AF8B1
:102AB00010BD00009C000020A0000020F0B5561CB6
:102AC0007510074E06EB41042B4605E034F8047BF5
:102AD00020F8017B401C5B1E002BF7D1F0BD0000ED
:102AE0000060004010B50D4890F82C10002000F058
:102AF000CFF90B480068007A082805D1400209493F
:102B0000088010200849088005480068007A0928D4
:102B100001D1012010BD0020FCE7000010010020C1
:102B20009C000020AC000020AE00002010B5012069
:102B300001F09FF801240B48046000200A49088036
:102B400008460088074908600020091D08604FF406
:102B5000E0500549088008460088024908600020C6
:102B600010BD0000405C0040A600002029B1064ACC
:102B7000D2690243044BDA6104E0034AD26982431A
:102B8000014BDA61704700000010024029B1064A8B
:102B900012690243044B1A6104E0034A126982433A
:102BA000014B1A61704700000010024029B1064A2B
:102BB00092690243044B9A6104E0034A926982439A
:102BC000014B9A61704700000010024029B1064A8B
:102BD000D2680243044BDA6004E0034AD2688243BD
:102BE000014BDA60704700000010024030B5002150
:102BF0000022002400232D4D6D6805F00C0121B149
:102C0000042905D0082923D105E0294D056022E0DB
:102C1000274D05601FE0254D6D6805F47012234DAA
:102C20006D6805F48034022505EB92421CB9214DF4
:102C3000554305600BE01D4D6D6805F400351DB171
:102C40001C4D5543056002E0194D5543056002E0F7
:102C5000174D056000BF00BF144D6D6805F0F00111
:102C60000909154D6B5C0568DD4045600F4D6D68C9
:102C700005F4E061090A104D6B5C4568DD40856034
:102C80000A4D6D6805F46051C90A0B4D6B5C4568CF
:102C9000DD40C560054D6D6805F44041890B074D69
:102CA0006B5CC568B5FBF3F5056130BD00100240F3
:102CB00000127A0000093D008000002090000020F2
:102CC0000149086070470000D800424270B50546CF
:102CD000072D01D02748057026480078082841D2E2
:102CE000DFE800F0040A1016212E414200F046F8F9
:102CF0000620204908703BE000F040F804201D4900
:102D0000087035E002201B494870032008702FE04E
:102D100018484078401E174948700846407808B95E
:102D20000420087024E01448006884B244F01004C1
:102D30001148046005200F4908700A20487017E008
:102D40000C484078401E0B4948700846407840B90E
:102D50000948006884B224F0100407480460062083
:102D6000087005E000BF00BF06200249087000BFE0
:102D700000BF70BDA9010020405C004010B50748AD
:102D8000006884B224F0040404480460FFF76AFC7D
:102D90004FF43F400149086010BD0000405C004016
:102DA00021B1028842F04002028004E002884FF61E
:102DB000BF731A40028070470246002013890B40FF
:102DC0000BB1012000E00020704701468889704760
:102DD0008181704710B50022028802F441520B88AD
:102DE0004C8823438C882343CC8823430C8923437A
:102DF0004C8923438C892343CC8923431A43028083
:102E0000838B4FF2FF74234083830B8A038210BDB0
:102E10004FF6F8710140014A11607047505C004064
:102E200030B501460E4B1A78002011E003060D4C18
:102E300004EB9353D3F8003C48F68F742340C4B29C
:102E400023430406074D05EB9454C4F8003C401C92
:102E50009042EBD341F08003034C236030BD00006F
:102E60000C010020005000404C5C004010B54A109E
:102E70005300054A126892B202EBC002121D034CC5
:102E800044F8123010BD0000505C0040006000406B
:102E900010B502460F48006880B200EBC200801DEA
:102EA0000D4C04EB40033E290BDD481101F01F04DB
:102EB0000CB9441EA0B24FF4004444EA80241C60C4
:102EC00007E0481001F001040CB1441CA0B28402D8
:102ED0001C6010BD505C00400060004010B50C4C00
:102EE00004EB8003D3F8003C4BF68F7403EA040232
:102EF00001F480530BB182F4805201F400530BB102
:102F000082F40052024C04EB8003C3F8002C10BD85
:102F100000500040094B03EB8002D2F8002C4BF626
:102F20008F7302EA030181F4805181F40051034B55
:102F300003EB8002C2F8001C704700000050004004
:102F400010B54A105200044B1B689BB203EBC00340
:102F5000024C44F8132010BD505C0040006000405B
:102F6000044A126892B202EBC002921C024B43F870
:102F700012107047505C00400060004010B50C4CCF
:102F800004EB8003D3F8003C48F6BF7403EA040264
:102F900001F010030BB182F0100201F020030BB11D
:102FA00082F02002024C04EB8003C3F8002C10BD19
:102FB0000050004010B5074B03EB8002D2F8002C04
:102FC00048F68F131A400A43024C04EB8003C3F8FF
:102FD000002C10BD0050004010B500F001F810BDED
:102FE0000CB50020019000903348006840F4803018
:102FF0003149086000BF3048006800F4003000909C
:103000000198401C0190009818B90198B0F5A06F84
:10301000F1D12948006800F4003010B1012000907F
:1030200001E0002000900098012843D12348006867
:1030300040F01000214908600846006820F00300B5
:1030400008600846006840F0010008601A484068BF
:10305000194948600846406848600846406840F49E
:10306000806048600846406820F47C10486008464C
:10307000406840F4881048600846006840F080705E
:10308000086000BF0C48006800F000700028F9D00C
:103090000948406820F00300074948600846406836
:1030A00040F00200486000BF0348406800F00C0098
:1030B0000828F9D10CBD0000001002400020024099
:1030C00010B50020FFF7FCFD0121C805FFF74EFDFC
:1030D00010BD000008B52848006880B2001D2749CF
:1030E00031F8100080B201EB4000009024480068E5
:1030F000007A09282FD000980078214909680870C3
:103100000098401C0090009800781D49096848709C
:103110000098401C00900098801C0090009931F8A5
:10312000020B0091FDF77CFF154909684880009863
:10313000801C0090009931F8020B0091FDF770FFA0
:103140000F49096888800098801C009000980088CA
:103150000B490968C88001200949096808720848B4
:103160000068C08810B9FFF7DFFB01E0FEF7B8FC8C
:10317000FFF7B8FC08BD0000505C00400060004054
:103180009C0000202DE9F04750480068007800F0CE
:103190007F08B8F1000F0AD14C480068407A00F06F
:1031A000DF004A49096848720020BDE8F087B8F19D
:1031B000020F7DD145480068408818B9434800682F
:1031C000007908B10220F0E7DFF804913F48006879
:1031D000477927F080052C463C480068407900F08C
:1031E000800038B13B4901EB8400D0F8000C00F0BE
:1031F000300606E0374901EB8400D0F8000C00F4FB
:10320000405699F80000A84204D91EB12F48006822
:10321000807A08B90220C8E707F0800080B12D4904
:1032200001EB8400D0F8000C00F03000102843D1EE
:10323000E0B2FEF725FAE0B23021FFF79FFE3BE057
:10324000244901EB8400D0F8000C00F44050B0F5A4
:10325000805F31D1C4B9204A92F82C10E0B2FFF758
:1032600017FE1C4A02EB8401D1F8001C4BF68F724A
:1032700001EA020080F4805080F40050154A02EB0D
:103280008401C1F8000C17E0E0B2FEF7DFF9114A43
:1032900002EB8401D1F8001C4BF68F7201EA0200A8
:1032A00080F4805080F400500A4A02EB840100E070
:1032B00008E0C1F8000C00BF084909684869804768
:1032C000002072E700BF02206FE700009C00002092
:1032D0000C0100200050004010010020A800002038
:1032E00010B504462CB9012006490968088200205F
:1032F00010BD0549096808688047024800680A301F
:10330000F6E700009C000020A800002010B502464F
:1033100006480068438A32B98888C01A034C24687A
:103320002082002010BD08681844FBE79C000020A4
:1033300010B504462CB9012006490968088200200E
:1033400010BD0549096888688047024800680C304C
:10335000F6E700009C000020A800002010B50446FD
:103360002CB90220354909680882002010BD0020D0
:103370003349088031480068007800F07F00E0B9E8
:103380002E490968487A00F0200129B12C490978B2
:1033900041F002012A4A117000F0400131B1284980
:1033A000097801F0FE01264A117005E024490978E8
:1033B00041F00101224A11703AE02048006800788B
:1033C00000F07F00012801D11D48CFE71B480068AD
:1033D000007800F07F00022828D1184A126851793D
:1033E00001F00F0001F080027AB1164B03EB80026E
:1033F000D2F8002C02F03002102A16D1104A1278AE
:1034000042F001020E4B1A700FE00E4B03EB8002EC
:10341000D2F8002C02F44052B2F5805F05D1084A80
:10342000127842F00102064B1A7001E000209DE77D
:103430000549096808698047014897E79C00002012
:103440009400002000500040A800002010B50E4855
:103450000068C0780D494978884213DC0A48006842
:10346000807878B908480068808858B906480068AC
:10347000C078054909688872054909684868804725
:10348000002010BD0220FCE79C0000200C01002061
:10349000A800002010B507480068407A40F02000DE
:1034A00004490968487204490968C86980470020CE
:1034B00010BD00009C000020A80000202DE9F04174
:1034C0002A480068467926F080073C46274800686D
:1034D000407900F0800038B1254901EB8400D0F834
:1034E000000C00F0300506E0214901EB8400D0F823
:1034F000000C00F440551F480078A04208D91B4832
:103500000068408820B91DB118480068807A10B959
:103510000220BDE8F08106F0800080B1144A02EB81
:103520008401D1F8001C48F6BF7201EA020080F065
:1035300010000F4A02EB8401C1F8000C10E00C4AA5
:1035400002EB8401D1F8001C4BF68F7201EA0200F5
:1035500080F48050064A02EB8401C1F8000C00BFE1
:1035600005490968886980470020D2E79C0000204F
:10357000005000400C010020A800002010B5174B9F
:103580001B68D978154B1B685879154B1B689A69CD
:103590009047044611480068807AE8B13CB90F486A
:1035A0000068007918B90D480068807808B10220D9
:1035B00010BD8CB90B490968C86880470748006886
:1035C000407906490968C87204480068C078034910
:1035D000096808730020EBE70220E9E79C0000205F
:1035E000A0000020A800002010B50848006884B2A0
:1035F00044F0080405480460006884B244F0040400
:1036000002480460FEF7F8FB10BD0000405C00407B
:1036100010B500F001F810BD10B505480068401C59
:1036200003490860FFF72EF800F0C4FD10BD00004C
:103630005C00002010B51348006840F001001149FB
:10364000086008464068104908400E49486008462E
:1036500000680E4908400B4908600846006820F4DD
:10366000802008600846406820F4FE0048604FF45F
:103670001F008860FFF7B0FC4FF00060044908604D
:1036800010BD0000001002400000FFF8FFFFF6FE32
:1036900008ED00E021B1028842F08002028004E0DF
:1036A00002884FF67F731A400280704721B102886A
:1036B00042F00102028004E002884FF6FE731A40D5
:1036C0000280704770B5002400220023058C4FF65D
:1036D000FE7635400584028C8388048B4FF68F7507
:1036E0002C40B51E2C400D882C43751E2A400D8998
:1036F0002A434D882A43144DA8420BD0134DA842AB
:1037000008D0134DA84205D0124DA84202D0124D48
:10371000A84213D14FF6F7752A404D892A434FF638
:10372000FB752A408D882A434FF6FF652B404FF6E4
:10373000FF552B408D892B43CD892B4383800483F8
:10374000CD888586028470BD002C01400034014084
:103750000040014000440140004801400A46002169
:10376000018B4FF6F7731940114301837047000036
:1037700070B5002400220023058C4FF6EF7635400B
:103780000584028C8388048B48F6FF752C404FF625
:10379000FF452C400D884FF6FF7606EA05252C43A1
:1037A0004FF6DF752A400D8906EA05152A434D8834
:1037B00006EA05152A43154DA84202D0144DA84229
:1037C0001DD14FF67F752A404D894FF6FF7606EAE8
:1037D00005152A434FF6BF752A408D8806EA051560
:1037E0002A434FF6FF352B404FF2FF752B408D8952
:1037F00006EA85052B43CD8906EA85052B438380A0
:103800000483CD880587028470BD0000002C014030
:10381000003401400A460021018B4FF2FF7319402A
:103820004FF6FF7303EA0223194301837047000038
:1038300070B5002400220023058C4FF6FF6635404A
:103840000584028C8388848B4FF68F752C404FF64D
:10385000FC752C400D882C434FF6FF552A400D89EE
:103860004FF6FF7606EA05252A434D8806EA052528
:103870002A43154DA84202D0144DA8421DD14FF243
:10388000FF752A404D894FF6FF7606EA05252A4343
:103890004FF6FF352A408D8806EA05252A434EF665
:1038A000FF752B404DF6FF752B408D8906EA0515F7
:1038B0002B43CD8906EA05152B4383808483CD886D
:1038C0008587028470BD0000002C01400034014057
:1038D0000A460021818B4FF6F7731940114381830B
:1038E0007047000070B5002200230024058C4EF6BE
:1038F000FF7635400584038C8488828B48F6FF75FB
:103900002A404FF6FF452A400D884FF6FF7606EA1B
:1039100005252A434DF6FF752B400D8906EA05352E
:103920002B434D8806EA05352B430B4DA84202D0A8
:103930000A4DA84208D14BF6FF752C408D894FF6F1
:10394000FF7606EA85152C4384808283CD88A0F813
:103950004050038470BD0000002C01400034014041
:103960000A460021818B4FF2FF7319404FF6FF7317
:1039700003EA0223194381837047002101804180BB
:103980008180C180018141818181C18170470000B6
:10399000002202881D4B98420ED01D4B98420BD03E
:1039A000B0F1804F08D01B4B984205D01A4B98427B
:1039B00002D01A4B984204D14FF68F731A404B88AD
:1039C0001A43174B984207D0164B984204D04FF633
:1039D000FF431A40CB881A4302808B8883850B886B
:1039E00003850A4B98420BD0094B984208D00E4BE6
:1039F000984205D00D4B984202D00D4B984201D110
:103A00000B7A03860123838270470000002C01405B
:103A1000003401400004004000080040000C004059
:103A200000100040001400400040014000440140EC
:103A3000004801404FF6FF71818000210180C18064
:103A400041800172704710B5FDF73CFA10BD10B50A
:103A5000FDF738F910BD10B502460020108A4FF26C
:103A6000FF0318400B884C8823438C882343CC8861
:103A700023431843108210BD21B1828942F40052C1
:103A8000828104E082894DF6FF731A40828170477B
:103A900010B504462048844209D101218803FFF76C
:103AA00095F800214FF48040FFF790F832E01B4872
:103AB000844209D101214804FFF768F800214FF43E
:103AC0000030FFF763F825E01548844209D1012151
:103AD0008804FFF75BF800214FF48020FFF756F8C9
:103AE00018E01048844209D10121C804FFF74EF8BC
:103AF00000214FF40020FFF749F80BE00A48844208
:103B000008D101210805FFF741F800214FF480108A
:103B1000FFF73CF810BD00000038014000440040B1
:103B200000480040004C0040005000400246002089
:103B3000B1F5007F00D100BF13880B400BB101200D
:103B400000E000207047F0B5034600240026002561
:103B5000002040F66A17B94200D100BF1846C1F3F1
:103B6000421401F01F06012707FA06F5012C01D1C6
:103B70000C3004E0022C01D1103000E014301AB1F6
:103B800007682F43076002E00768AF430760F0BD96
:103B90002DE9F04786B005460E460024A24600BF38
:103BA000A1460027B08900B100BF2F462C8A4CF6F1
:103BB000FF700440F08804432C82AC894EF6F31069
:103BC0000440B08831890843718908430443AC81BB
:103BD000AC8A4FF6FF400440B0890443AC8201A890
:103BE000FFF704F81F48874202D1DDF810A001E07A
:103BF000DDF80CA0A88900F4004040B10AEBCA002F
:103C000000EB0A1031684900B0FBF1F807E00AEB5D
:103C1000CA0000EB0A1031688900B0FBF1F864209B
:103C2000B8FBF0F004012009642101FB1089A88988
:103C300000F4004040B1322000EBC900B0FBF1F0CD
:103C400000F00700044308E0322000EB0910642173
:103C5000B0FBF1F000F00F0004432C8106B0BDE88A
:103C6000F08700000038014001468888C0F3080052
:103C70007047704710B5044601210420FEF796FFF7
:103C80003CB11048006880B220F002000D49086085
:103C900016E00C48006880B240F002000949086054
:103CA0000948006820F47F2007490860084600683A
:103CB00040F44C30086089140348001FFEF730FAC6
:103CC00010BD0000405C0040040801407047000047
:103CD00010B5FFF7FBFF00F033F8FFF7F1F900F044
:103CE00011F8002005490870FFF7C4FF6420FEF7B3
:103CF00043F80120FFF7BEFF10BD0000CA000020FE
:103D00007047000010B5084808490860022009689B
:103D100008720748074908600748084908600549CC
:103D200009680868804710BD500B00209C000020E7
:103D300010010020A000002040010020A800002069
:103D400008B514208DF8000001208DF80100002036
:103D50008DF8020001208DF803006846FEF7A2FDF1
:103D600008BD000010B5374800683749088008468C
:103D7000008800F4806035490988084030B14FF66A
:103D8000FF30304908603249486880472E48008833
:103D900000F400502D490988084018B14DF6FF7015
:103DA000284908602848008800F48050274909887D
:103DB000084030B14EF6FF70224908600020FEF73F
:103DC00085FF2148008800F40060204909880840E8
:103DD00060B12048007810B1FFF706FC02E0022035
:103DE000FEF774FF4FF2FF7016490860164800880E
:103DF00000F4007015490988084040B14FF6FF50A3
:103E00001049086014480078401C134908700E4897
:103E1000008800F480700D490988084030B14FF6E1
:103E2000FF60084908600720FEF750FF0648008839
:103E300000F4004005490988084008B1FDF772FA0E
:103E400010BD0000445C0040CC000020A600002013
:103E500010010020A8010020CE00002010B5FFF7BF
:103E600081FF10BD70B5024600200AE0145C064BCD
:103E70001D781B785B1C044E3370044B5C55431C4F
:103E8000D8B28842F2DB70BD28000020280500204F
:103E9000F0B5144604F1010C4FEA6C07DFF824C0BA
:103EA0000CEB41033D460AE00678401C90F800C048
:103EB00046EA0C2223F8022B9B1C401C6D1E002D91
:103EC000F2D1F0BD0060004002E008C8121F08C136
:103ED000002AFAD170477047002001E001C1121F8B
:103EE000002AFBD17047000000B585B06846FEF798
:103EF0007DFE04490098B0FBF1F00349086005B06D
:103F000000BD000040420F005800002000F0E6F81D
:103F10000BE0FCF76FFC4FF47A70FDF736FFFCF70F
:103F20006FFC4FF47A70FDF730FFF2E710B5FDF744
:103F30005FF9FDF7B7F8FDF779F810BD10B588B057
:103F40006846FEF7F1F805A8FFF774FD01A8FFF732
:103F500014FD01210420FEF729FE0F20ADF800001A
:103F600003208DF8020018208DF803006946574899
:103F7000FEF703F8002401210846FEF7F7FD544838
:103F800000685449B0FBF1F0401E84B240F2E730C3
:103F9000ADF81800ADF814400020ADF81A00ADF8E7
:103FA000160005A94FF08040FFF7F2FC6020ADF845
:103FB00004000120ADF806000020ADF80A00ADF8BD
:103FC0000C0001A94FF08040FFF77CFB0821C806D8
:103FD000FFF7C4FB01A94FF08040FFF7C9FB0821A0
:103FE000C806FFF717FC01A94FF08040FFF720FC3F
:103FF0000821C806FFF76CFC01A94FF08040FFF7CD
:1040000071FC0821C806FFF7ABFC01218807FFF708
:1040100041FB01218807FFF749FB6846FEF784F85A
:1040200005A8FFF707FD01A8FFF7A7FC0121042061
:10403000FEF7BCFDC020ADF8000003208DF80200A3
:1040400018208DF8030069462048FDF796FF0121EE
:104050000220FEF78BFD1E4800681E49B0FBF1F000
:10406000401E84B240F2E730ADF81800ADF81440BD
:104070000020ADF81A00ADF8160005A91648FFF7A4
:1040800087FC6020ADF804000120ADF80600002098
:10409000ADF80A00ADF80C0001A90F48FFF712FBBC
:1040A00008210D48FFF75AFB01A90B48FFF760FBF9
:1040B00008210948FFF7AEFB01210748FFF7EAFA9C
:1040C00001210548FFF7F2FA08B010BD00080140D1
:1040D0006C00002000366E010004004070B54FF403
:1040E0004070FEF717FCFFF7F3FDFFF7FDFE2B48CE
:1040F00000684FF47A72B0FBF2F1B1F1807F00D327
:104100001DE021F07F40401E4FF0E022506150172B
:104110000F22002807DA13071D0E214B00F00F04B1
:10412000241F1D5503E013071C0E1E4B1C5400BF1B
:1041300000204FF0E02290610720106100BFFCF7E3
:1041400065FBFEF779F8FCF723FDFCF7A9FB1649A0
:1041500008700846007818B150210420FCF7C2FB13
:104160001248FCF7F5FDFDF74DFE0120FDF776FE48
:104170000120FDF761FE00200D49C8706420FDF7A5
:1041800004FE1420FEF7B2FAC820FDF7FEFDFCF78E
:10419000BFFCFFF7D3FEFFF7C9FE70BD6C00002027
:1041A00018ED00E000E400E00000002020A107007E
:1041B000040000201F48B0F9000040F2E7318842B7
:1041C00006DA1C480088401C00B21A4908802FE01B
:1041D0000020184908801848B0F900003B2806DA8A
:1041E00015480088401C00B21349088020E00020D8
:1041F000114908801148B0F900003B2806DA0F4841
:104200000088401C00B20D49088011E000200B49D5
:1042100008800B48B0F90000172806DA0848008823
:10422000401C00B20649088002E0002004490880D2
:104230007047000068000020660000206400002035
:10424000620000201201000200000040830401A06F
:1042500000030102030109022900010100C0320923
:1042600004000002030000000921100100012221C6
:104270000007058203400001070501034000010516
:104280008C0901A101090315002600FF750895405E
:104290008102090415002600FF750895409102C0AF
:1042A00004030904140341004E004F00540043006E
:1042B0005F00480049004400120354006F006E0084
:1042C0006700580069006E0031000000EC420008F1
:1042D00000000020AC0100004C02000894430008DC
:1042E000AC010020040E0000D83E00080113A00A13
:1042F0000A320A0F14143232C85205021B1414AACF
:10430000BBCC3A0105011B846CDC02680901020385
:1043100004060708090C6910051C02040608141A93
:104320000378A902011013A3281408E11D2A080824
:10433000E9040A15BD182904411A03BC13211914F4
:104340000821181B081D081A1F0413D5161408FD90
:10435000171B08E5041A65041A51041ABD04416AC2
:10436000407019300916581AF91C134442330812C8
:104370001A560832291A7F0832211A680832091A97
:10438000A00832041AA40832145AB83022B073209C
:044390001A199B114A
:04000005080000ED02
:00000001FF
